:030000000204AB4C
:0C04AB00787FE4F6D8FD7581400204F271
:1005A600D3EF9400EE940040147D7D7C00ED1D7029
:0D05B600011CED4C70F7EF1F70E61E80E396
:0105C3002215
:10036500E4FFFBFAF53F7540637590F0AE90EE64DF
:10037500F060157F147E001205A6AF9075900FAE44
:1003850090EE640F6002AB90EF2B12001E04117704
:10039500040C7B04077D04027E03FDB703F8BB0351
:1003A500F3BD03EEBE03E9D703E4DB03DFDD03DAC8
:1003B500DE03D5E703D0EB03CBED03C6EE00000467
:1003C50016753E01804E753E028049753E03804498
:1003D500753E04803F753E05803A753E068035754D
:1003E5003E078030753E08802B753E098026753E98
:1003F5000A8021753E0B801C753E0C8017753E0DDD
:100405008012753E0E800D753E0F8008753E10807A
:0604150003E4F53EAF3EDA
:01041B0022BE
:0A05C400C0F9A4B0999282F880906B
:1005370004250000000002090064023C0000021FBD
:10054700000002210000021D0000100B0000000047
:10055700000000000000000000000000102900015A
:0E05670000010001000100010001000100017F
:1001EE00120003D2AFD2A7D2A5C2A6D3E52094089F
:1001FE00E51F94004006751F0075200112041CC2F5
:10020E00A37580FF74C4250AF58274053509F5833C
:10021E00E493F5807F057E001205A6D2A3C2A175D8
:10022E0080FF74C42520F5827405351FF583E49391
:10023E00F5807F057E001205A6D2A1C2A07580FFB3
:10024E0075808E7F057E001205A6D2A0C2A2758093
:10025E00FF7580C87F057E001205A6D2A2053AE57D
:10026E003A70020539D39408E539648094804005CC
:10027E00E4F539F53AE53AB52025E539B51F20E51F
:10028E0022640145217018AF3AEF25E0240BF8A641
:10029E000908A60AEF25E02429F8A60908A60AE50A
:1002AE001E6401451D7048780B7C00FDFB7A0079B9
:1002BE0029FE7F101201CAEF3395E04F7031C2A7AD
:1002CE00F51DF51EF51FF520F53CF53DC3E53A94F9
:1002DE0008E539648094805016E53A25E02429F823
:1002EE007600087663053AE53A70E1053980DDE57A
:1002FE003D6403453C7050780B7C00FDFB7A007921
:10030E0029FE7F101201CAEF3395E04F6039E4F5F4
:10031E001DF51EF51FF520C2A57F64FE1205A6E48D
:10032E00F53CF53DC3E53A9408E539648094805078
:10033E0016E53A25E02429F87600087663053AE5B5
:10034E003A70E1053980DDE53D6403453C700302FA
:07035E0001F9D2A50201F92B
:03001B0002057665
:10057600C0E0C0D0E5282401F528E43527F527E4B6
:100586003526F526E43525F5250524E524700205EE
:1005960023640345237004F523F524D0D0D0E0323C
:10041C00E524452360030204AAF523752401120385
:10042C00658F08E51C65085508F51B85081C24FF1D
:10043C00FFE434FFFEC3648094804017D3EF94092B
:10044C00EE64809480500C8E098F0A0520E5207094
:10045C0002051FC3E51B940A748094804005E4F5E3
:10046C001FF520AF1B7E00EF640B7005F521752284
:10047C0001EF640C4E7004F521F522EF640D4E7003
:10048C000DF51D751E01053DE53D7002053CEF6443
:0F049C000E4E700AF51DF51ED2A7F53CF53D2258
:10000300438910758DFC758B18D2ABD2AFD28E227B
:1004B7000201EEE493A3F8E493A34003F68001F26C
:1004C70008DFF48029E493A3F85407240CC8C33346
:1004D700C4540F4420C8834004F456800146F6DF15
:1004E700E4800B0102040810204080900537E47E69
:1004F700019360BCA3FF543F30E509541FFEE4930A
:10050700A360010ECF54C025E060A840B8E493A3D0
:10051700FAE493A3F8E493A3C8C582C8CAC583CAFB
:10052700F0A3C8C582C8CAC583CADFE9DEE780BEB3
:010575000085
:10001E00D083D082F8E4937012740193700DA3A371
:10002E0093F8740193F5828883E473740293686085
:06003E00EFA3A3A380DF85
:10004400E3F5F009E208B5F06BDFF58067E3F5F05E
:1000540009E608B5F05EDFF5805A87F009E608B5D1
:10006400F052DFF6804E87F009E208B5F046DFF67D
:10007400804288828C8387F009E0A3B5F036DFF6EE
:10008400803288828C8387F009E493A3B5F025DF5E
:10009400F5802188828C83E3F5F009E0A3B5F014A0
:1000A400DFF5801088828C83E3F5F009E493A3B52F
:1000B400F002DFF4020173808780E9809080D480AD
:1000C4003E8015806E807E809D80B7808D80A38069
:1000D400518074803C02017F89828A83ECFAE49324
:1000E400F5F0A3C8C582C8CCC583CCE493A3C8C526
:1000F40082C8CCC583CCB5F076DFE3DEE1807089BD
:10010400828A83E493F5F0A3E208B5F062DFF48019
:100114005E89828A83E0F5F0A3E608B5F051DFF545
:10012400804D89828A83E0F5F0A3E208B5F040DFD0
:10013400F5803C89828A83E493F5F0A3E608B5F060
:100144002EDFF4802A8002805789828A83ECFAE4C5
:1001540093F5F0A3C8C582C8CCC583CCE0A3C8C5B9
:1001640082C8CCC583CCB5F006DFE4DEE280007F34
:10017400FFB5F0020F2240027F012289828A83ECBC
:10018400FAE0F5F0A3C8C582C8CCC583CCE0A3C807
:10019400C582C8CCC583CCB5F0D5DFE5DEE380CF1E
:1001A40089828A83ECFAE0F5F0A3C8C582C8CCC57D
:1001B40083CCE493A3C8C582C8CCC583CCB5F0AFC7
:1001C400DFE4DEE280A988F0EF60010E4E60ABED63
:1001D4002402B404005098F582EB2402B4040050C5
:0A01E4008E23234582239000BB7395
:00000001FF
